{
  "_format": "hh-sol-artifact-1",
  "contractName": "DIDStorage",
  "sourceName": "contracts/DIDStorage.sol",
  "abi": [
    {
      "inputs": [
        {
          "internalType": "address",
          "name": "_didRegistry",
          "type": "address"
        }
      ],
      "stateMutability": "nonpayable",
      "type": "constructor"
    },
    {
      "anonymous": false,
      "inputs": [
        {
          "indexed": true,
          "internalType": "bytes32",
          "name": "didHash",
          "type": "bytes32"
        },
        {
          "indexed": true,
          "internalType": "address",
          "name": "accessor",
          "type": "address"
        },
        {
          "indexed": false,
          "internalType": "string",
          "name": "dataType",
          "type": "string"
        }
      ],
      "name": "AccessGranted",
      "type": "event"
    },
    {
      "anonymous": false,
      "inputs": [
        {
          "indexed": true,
          "internalType": "bytes32",
          "name": "didHash",
          "type": "bytes32"
        },
        {
          "indexed": true,
          "internalType": "address",
          "name": "accessor",
          "type": "address"
        },
        {
          "indexed": false,
          "internalType": "string",
          "name": "dataType",
          "type": "string"
        }
      ],
      "name": "AccessRevoked",
      "type": "event"
    },
    {
      "anonymous": false,
      "inputs": [
        {
          "indexed": true,
          "internalType": "bytes32",
          "name": "didHash",
          "type": "bytes32"
        },
        {
          "indexed": true,
          "internalType": "string",
          "name": "dataType",
          "type": "string"
        }
      ],
      "name": "DataDeleted",
      "type": "event"
    },
    {
      "anonymous": false,
      "inputs": [
        {
          "indexed": true,
          "internalType": "bytes32",
          "name": "didHash",
          "type": "bytes32"
        },
        {
          "indexed": true,
          "internalType": "string",
          "name": "dataType",
          "type": "string"
        },
        {
          "indexed": false,
          "internalType": "bytes32",
          "name": "dataHash",
          "type": "bytes32"
        }
      ],
      "name": "DataStored",
      "type": "event"
    },
    {
      "anonymous": false,
      "inputs": [
        {
          "indexed": true,
          "internalType": "bytes32",
          "name": "didHash",
          "type": "bytes32"
        },
        {
          "indexed": true,
          "internalType": "string",
          "name": "dataType",
          "type": "string"
        },
        {
          "indexed": false,
          "internalType": "bytes32",
          "name": "newDataHash",
          "type": "bytes32"
        }
      ],
      "name": "DataUpdated",
      "type": "event"
    },
    {
      "anonymous": false,
      "inputs": [
        {
          "indexed": true,
          "internalType": "address",
          "name": "previousOwner",
          "type": "address"
        },
        {
          "indexed": true,
          "internalType": "address",
          "name": "newOwner",
          "type": "address"
        }
      ],
      "name": "OwnershipTransferred",
      "type": "event"
    },
    {
      "anonymous": false,
      "inputs": [
        {
          "indexed": false,
          "internalType": "address",
          "name": "account",
          "type": "address"
        }
      ],
      "name": "Paused",
      "type": "event"
    },
    {
      "anonymous": false,
      "inputs": [
        {
          "indexed": true,
          "internalType": "address",
          "name": "didRegistry",
          "type": "address"
        }
      ],
      "name": "StorageInitialized",
      "type": "event"
    },
    {
      "anonymous": false,
      "inputs": [
        {
          "indexed": false,
          "internalType": "address",
          "name": "account",
          "type": "address"
        }
      ],
      "name": "Unpaused",
      "type": "event"
    },
    {
      "inputs": [
        {
          "internalType": "bytes32",
          "name": "didHash",
          "type": "bytes32"
        },
        {
          "internalType": "string",
          "name": "dataType",
          "type": "string"
        }
      ],
      "name": "dataExists",
      "outputs": [
        {
          "internalType": "bool",
          "name": "",
          "type": "bool"
        }
      ],
      "stateMutability": "view",
      "type": "function"
    },
    {
      "inputs": [
        {
          "internalType": "bytes32",
          "name": "didHash",
          "type": "bytes32"
        },
        {
          "internalType": "string",
          "name": "dataType",
          "type": "string"
        }
      ],
      "name": "deleteData",
      "outputs": [],
      "stateMutability": "nonpayable",
      "type": "function"
    },
    {
      "inputs": [],
      "name": "didRegistry",
      "outputs": [
        {
          "internalType": "contract IDIDRegistry",
          "name": "",
          "type": "address"
        }
      ],
      "stateMutability": "view",
      "type": "function"
    },
    {
      "inputs": [
        {
          "internalType": "bytes32",
          "name": "didHash",
          "type": "bytes32"
        }
      ],
      "name": "getAllDataTypes",
      "outputs": [
        {
          "internalType": "string[]",
          "name": "",
          "type": "string[]"
        }
      ],
      "stateMutability": "view",
      "type": "function"
    },
    {
      "inputs": [
        {
          "internalType": "bytes32",
          "name": "didHash",
          "type": "bytes32"
        },
        {
          "internalType": "string",
          "name": "dataType",
          "type": "string"
        }
      ],
      "name": "getData",
      "outputs": [
        {
          "components": [
            {
              "internalType": "bytes32",
              "name": "dataHash",
              "type": "bytes32"
            },
            {
              "internalType": "string",
              "name": "dataType",
              "type": "string"
            },
            {
              "internalType": "uint256",
              "name": "timestamp",
              "type": "uint256"
            },
            {
              "internalType": "bool",
              "name": "isEncrypted",
              "type": "bool"
            },
            {
              "internalType": "address[]",
              "name": "authorizedAccessors",
              "type": "address[]"
            }
          ],
          "internalType": "struct IDIDStorage.StoredData",
          "name": "",
          "type": "tuple"
        }
      ],
      "stateMutability": "view",
      "type": "function"
    },
    {
      "inputs": [
        {
          "internalType": "bytes32",
          "name": "didHash",
          "type": "bytes32"
        },
        {
          "internalType": "string",
          "name": "dataType",
          "type": "string"
        }
      ],
      "name": "getDataHash",
      "outputs": [
        {
          "internalType": "bytes32",
          "name": "",
          "type": "bytes32"
        }
      ],
      "stateMutability": "view",
      "type": "function"
    },
    {
      "inputs": [
        {
          "internalType": "bytes32",
          "name": "didHash",
          "type": "bytes32"
        },
        {
          "internalType": "address",
          "name": "accessor",
          "type": "address"
        },
        {
          "internalType": "string",
          "name": "dataType",
          "type": "string"
        }
      ],
      "name": "grantAccess",
      "outputs": [],
      "stateMutability": "nonpayable",
      "type": "function"
    },
    {
      "inputs": [
        {
          "internalType": "bytes32",
          "name": "didHash",
          "type": "bytes32"
        },
        {
          "internalType": "address",
          "name": "accessor",
          "type": "address"
        },
        {
          "internalType": "string",
          "name": "dataType",
          "type": "string"
        }
      ],
      "name": "hasAccess",
      "outputs": [
        {
          "internalType": "bool",
          "name": "",
          "type": "bool"
        }
      ],
      "stateMutability": "view",
      "type": "function"
    },
    {
      "inputs": [],
      "name": "owner",
      "outputs": [
        {
          "internalType": "address",
          "name": "",
          "type": "address"
        }
      ],
      "stateMutability": "view",
      "type": "function"
    },
    {
      "inputs": [],
      "name": "pause",
      "outputs": [],
      "stateMutability": "nonpayable",
      "type": "function"
    },
    {
      "inputs": [],
      "name": "paused",
      "outputs": [
        {
          "internalType": "bool",
          "name": "",
          "type": "bool"
        }
      ],
      "stateMutability": "view",
      "type": "function"
    },
    {
      "inputs": [],
      "name": "renounceOwnership",
      "outputs": [],
      "stateMutability": "nonpayable",
      "type": "function"
    },
    {
      "inputs": [
        {
          "internalType": "bytes32",
          "name": "didHash",
          "type": "bytes32"
        },
        {
          "internalType": "address",
          "name": "accessor",
          "type": "address"
        },
        {
          "internalType": "string",
          "name": "dataType",
          "type": "string"
        }
      ],
      "name": "revokeAccess",
      "outputs": [],
      "stateMutability": "nonpayable",
      "type": "function"
    },
    {
      "inputs": [
        {
          "internalType": "bytes32",
          "name": "didHash",
          "type": "bytes32"
        },
        {
          "internalType": "string",
          "name": "dataType",
          "type": "string"
        },
        {
          "internalType": "bytes32",
          "name": "dataHash",
          "type": "bytes32"
        },
        {
          "internalType": "bool",
          "name": "isEncrypted",
          "type": "bool"
        }
      ],
      "name": "storeData",
      "outputs": [],
      "stateMutability": "nonpayable",
      "type": "function"
    },
    {
      "inputs": [
        {
          "internalType": "address",
          "name": "newOwner",
          "type": "address"
        }
      ],
      "name": "transferOwnership",
      "outputs": [],
      "stateMutability": "nonpayable",
      "type": "function"
    },
    {
      "inputs": [],
      "name": "unpause",
      "outputs": [],
      "stateMutability": "nonpayable",
      "type": "function"
    },
    {
      "inputs": [
        {
          "internalType": "bytes32",
          "name": "didHash",
          "type": "bytes32"
        },
        {
          "internalType": "string",
          "name": "dataType",
          "type": "string"
        },
        {
          "internalType": "bytes32",
          "name": "newDataHash",
          "type": "bytes32"
        }
      ],
      "name": "updateData",
      "outputs": [],
      "stateMutability": "nonpayable",
      "type": "function"
    }
  ],
  "bytecode": "0x60a06040523480156200001157600080fd5b5060405162002d3b38038062002d3b83398101604081905262000034916200013d565b60016000556200004433620000eb565b6001805460ff60a01b191690556001600160a01b038116620000ac5760405162461bcd60e51b815260206004820152601c60248201527f496e76616c696420444944207265676973747279206164647265737300000000604482015260640160405180910390fd5b6001600160a01b03811660808190526040517f862045fb4c8cf5afa2f2773bcc6fa6078ebce023e8f1cdb47b1f62598884dead90600090a2506200016f565b600180546001600160a01b038381166001600160a01b0319831681179093556040519116919082907f8be0079c531659141344cd1fd0a4f28419497f9722a3daafe3b4186f6b6457e090600090a35050565b6000602082840312156200015057600080fd5b81516001600160a01b03811681146200016857600080fd5b9392505050565b608051612b47620001f4600039600081816101b2015281816103ad0152818161045101528181610501015281816107fa0152818161089e0152818161094501528181610cd801528181610d7c01528181610e2301528181611437015281816114db0152818161158201528181611930015281816119d40152611a7b0152612b476000f3fe608060405234801561001057600080fd5b506004361061010b5760003560e01c8063715018a6116100a257806390b97fc11161007157806390b97fc11461023257806392f8f2fc14610252578063cdea0b6814610265578063f2fde38b14610278578063f3ad7b9f1461028b57600080fd5b8063715018a6146101fe578063797187c0146102065780638456cb59146102195780638da5cb5b1461022157600080fd5b80633a291ff3116100de5780633a291ff3146101845780633f4ba83a146101a5578063577f9fb1146101ad5780635c975abb146101ec57600080fd5b806302d64b29146101105780630e1691191461013957806321f76f7f1461014e578063393ac4cb14610161575b600080fd5b61012361011e36600461214d565b61029e565b60405161013091906121b6565b60405180910390f35b61014c61014736600461231b565b61038a565b005b61014c61015c366004612374565b6107d7565b61017461016f3660046123c4565b610b25565b6040519015158152602001610130565b6101976101923660046123c4565b610b5f565b604051908152602001610130565b61014c610c91565b6101d47f000000000000000000000000000000000000000000000000000000000000000081565b6040516001600160a01b039091168152602001610130565b600154600160a01b900460ff16610174565b61014c610ca3565b61014c61021436600461231b565b610cb5565b61014c61112f565b6001546001600160a01b03166101d4565b6102456102403660046123c4565b61113f565b604051610130919061240b565b61017461026036600461231b565b6113c8565b61014c6102733660046124ae565b611414565b61014c610286366004612511565b611894565b61014c6102993660046123c4565b61190d565b606060036000838152602001908152602001600020805480602002602001604051908101604052809291908181526020016000905b8282101561037f5783829060005260206000200180546102f290612535565b80601f016020809104026020016040519081016040528092919081815260200182805461031e90612535565b801561036b5780601f106103405761010080835404028352916020019161036b565b820191906000526020600020905b81548152906001019060200180831161034e57829003601f168201915b5050505050815260200190600101906102d3565b505050509050919050565b604051637be768b760e01b81526004810184905283906000906001600160a01b037f00000000000000000000000000000000000000000000000000000000000000001690637be768b790602401600060405180830381865afa1580156103f4573d6000803e3d6000fd5b505050506040513d6000823e601f3d908101601f1916820160405261041c9190810190612660565b60208101519091506001600160a01b03163314806104c4575060405163cf76e48560e01b8152600481018390523360248201527f00000000000000000000000000000000000000000000000000000000000000006001600160a01b03169063cf76e48590604401602060405180830381865afa1580156104a0573d6000803e3d6000fd5b505050506040513d601f19601f820116820180604052508101906104c4919061274b565b6104e95760405162461bcd60e51b81526004016104e090612768565b60405180910390fd5b604051639300229b60e01b81526004810186905285907f00000000000000000000000000000000000000000000000000000000000000006001600160a01b031690639300229b90602401602060405180830381865afa158015610550573d6000803e3d6000fd5b505050506040513d601f19601f82011682018060405250810190610574919061274b565b6105905760405162461bcd60e51b81526004016104e090612790565b610598611e45565b6105a0611e92565b6001600160a01b0385166105e95760405162461bcd60e51b815260206004820152601060248201526f24b73b30b634b21030b1b1b2b9b9b7b960811b60448201526064016104e0565b600084511161060a5760405162461bcd60e51b81526004016104e0906127bc565b60008681526002602052604080822090516106269087906127f3565b90815260405190819003602001902054036106535760405162461bcd60e51b81526004016104e09061280f565b60008681526004602090815260408083206001600160a01b03891684529091529081902090516106849086906127f3565b9081526040519081900360200190205460ff16156106dd5760405162461bcd60e51b81526020600482015260166024820152751058d8d95cdcc8185b1c9958591e4819dc985b9d195960521b60448201526064016104e0565b60008681526004602090815260408083206001600160a01b0389168452909152908190209051600191906107129087906127f3565b9081526040805160209281900383018120805460ff1916941515949094179093556000898152600290925290209061074b9086906127f3565b9081526040519081900360209081018220600401805460018101825560009182529190200180546001600160a01b0388166001600160a01b031990911681179091559087907fa267c14363a987bca73845fc933d871e1e10068bd40c641db12b39c45d3a87fe906107bd90889061283c565b60405180910390a36107cf6001600055565b505050505050565b604051637be768b760e01b81526004810184905283906000906001600160a01b037f00000000000000000000000000000000000000000000000000000000000000001690637be768b790602401600060405180830381865afa158015610841573d6000803e3d6000fd5b505050506040513d6000823e601f3d908101601f191682016040526108699190810190612660565b60208101519091506001600160a01b0316331480610911575060405163cf76e48560e01b8152600481018390523360248201527f00000000000000000000000000000000000000000000000000000000000000006001600160a01b03169063cf76e48590604401602060405180830381865afa1580156108ed573d6000803e3d6000fd5b505050506040513d601f19601f82011682018060405250810190610911919061274b565b61092d5760405162461bcd60e51b81526004016104e090612768565b604051639300229b60e01b81526004810186905285907f00000000000000000000000000000000000000000000000000000000000000006001600160a01b031690639300229b90602401602060405180830381865afa158015610994573d6000803e3d6000fd5b505050506040513d601f19601f820116820180604052508101906109b8919061274b565b6109d45760405162461bcd60e51b81526004016104e090612790565b6109dc611e45565b6109e4611e92565b6000855111610a055760405162461bcd60e51b81526004016104e0906127bc565b83610a4e5760405162461bcd60e51b81526020600482015260196024820152784461746120686173682063616e6e6f7420626520656d70747960381b60448201526064016104e0565b6000868152600260205260408082209051610a6a9088906127f3565b9081526040519081900360200190205403610a975760405162461bcd60e51b81526004016104e09061280f565b6000868152600260205260408082209051610ab39088906127f3565b9081526040519081900360200181208681554260028201559150610ad89087906127f3565b6040518091039020877fc0b177aeed4c3bab14c7546d87b33bb7e6f01d2454e0944d5885758c2545952b87604051610b1291815260200190565b60405180910390a3506107cf6001600055565b6000828152600260205260408082209051829190610b449085906127f3565b90815260405190819003602001902054141590505b92915050565b6000828152600460209081526040808320338452909152808220905184918491610b8a9083906127f3565b9081526040519081900360200190205460ff1680610bd55750600082815260026020526040908190209051610bc09083906127f3565b90815260405190819003602001902060040154155b610c115760405162461bcd60e51b815260206004820152600d60248201526c1058d8d95cdcc819195b9a5959609a1b60448201526064016104e0565b6000858152600260205260408082209051610c2d9087906127f3565b9081526040519081900360200190205403610c5a5760405162461bcd60e51b81526004016104e09061280f565b600085815260026020526040908190209051610c779086906127f3565b908152604051908190036020019020549250505092915050565b610c99611eeb565b610ca1611f45565b565b610cab611eeb565b610ca16000611f9a565b604051637be768b760e01b81526004810184905283906000906001600160a01b037f00000000000000000000000000000000000000000000000000000000000000001690637be768b790602401600060405180830381865afa158015610d1f573d6000803e3d6000fd5b505050506040513d6000823e601f3d908101601f19168201604052610d479190810190612660565b60208101519091506001600160a01b0316331480610def575060405163cf76e48560e01b8152600481018390523360248201527f00000000000000000000000000000000000000000000000000000000000000006001600160a01b03169063cf76e48590604401602060405180830381865afa158015610dcb573d6000803e3d6000fd5b505050506040513d601f19601f82011682018060405250810190610def919061274b565b610e0b5760405162461bcd60e51b81526004016104e090612768565b604051639300229b60e01b81526004810186905285907f00000000000000000000000000000000000000000000000000000000000000006001600160a01b031690639300229b90602401602060405180830381865afa158015610e72573d6000803e3d6000fd5b505050506040513d601f19601f82011682018060405250810190610e96919061274b565b610eb25760405162461bcd60e51b81526004016104e090612790565b610eba611e45565b610ec2611e92565b6000845111610ee35760405162461bcd60e51b81526004016104e0906127bc565b60008681526004602090815260408083206001600160a01b0389168452909152908190209051610f149086906127f3565b9081526040519081900360200190205460ff16610f685760405162461bcd60e51b81526020600482015260126024820152711058d8d95cdcc81b9bdd0819dc985b9d195960721b60448201526064016104e0565b60008681526004602090815260408083206001600160a01b03891684529091528082209051610f989087906127f3565b9081526040805160209281900383018120805460ff1916941515949094179093556000898152600290925281209091610fd29087906127f3565b9081526020016040518091039020905060005b60048201548110156110f457866001600160a01b03168260040182815481106110105761101061284f565b6000918252602090912001546001600160a01b0316036110e25760048201805461103c9060019061287b565b8154811061104c5761104c61284f565b6000918252602090912001546004830180546001600160a01b03909216918390811061107a5761107a61284f565b9060005260206000200160006101000a8154816001600160a01b0302191690836001600160a01b03160217905550816004018054806110bb576110bb61288e565b600082815260209020810160001990810180546001600160a01b03191690550190556110f4565b806110ec816128a4565b915050610fe5565b50856001600160a01b0316877fddddea54dd24a0709846eeb3a46c59df1bbd0f1385d8a025eabe1a11e9bc1e7e87604051610b12919061283c565b611137611eeb565b610ca1611fec565b6040805160a08101825260008082526060602083018190529282018190528282015260808101919091526000838152600460209081526040808320338452909152908190209051849184916111959083906127f3565b9081526040519081900360200190205460ff16806111e057506000828152600260205260409081902090516111cb9083906127f3565b90815260405190819003602001902060040154155b61121c5760405162461bcd60e51b815260206004820152600d60248201526c1058d8d95cdcc819195b9a5959609a1b60448201526064016104e0565b60008581526002602052604080822090516112389087906127f3565b90815260405190819003602001902054036112655760405162461bcd60e51b81526004016104e09061280f565b6000858152600260205260409081902090516112829086906127f3565b90815260200160405180910390206040518060a0016040529081600082015481526020016001820180546112b590612535565b80601f01602080910402602001604051908101604052809291908181526020018280546112e190612535565b801561132e5780601f106113035761010080835404028352916020019161132e565b820191906000526020600020905b81548152906001019060200180831161131157829003601f168201915b50505050508152602001600282015481526020016003820160009054906101000a900460ff16151515158152602001600482018054806020026020016040519081016040528092919081815260200182805480156113b557602002820191906000526020600020905b81546001600160a01b03168152600190910190602001808311611397575b5050505050815250509250505092915050565b60008381526004602090815260408083206001600160a01b038616845290915280822090516113f89084906127f3565b9081526040519081900360200190205460ff1690509392505050565b604051637be768b760e01b81526004810185905284906000906001600160a01b037f00000000000000000000000000000000000000000000000000000000000000001690637be768b790602401600060405180830381865afa15801561147e573d6000803e3d6000fd5b505050506040513d6000823e601f3d908101601f191682016040526114a69190810190612660565b60208101519091506001600160a01b031633148061154e575060405163cf76e48560e01b8152600481018390523360248201527f00000000000000000000000000000000000000000000000000000000000000006001600160a01b03169063cf76e48590604401602060405180830381865afa15801561152a573d6000803e3d6000fd5b505050506040513d601f19601f8201168201806040525081019061154e919061274b565b61156a5760405162461bcd60e51b81526004016104e090612768565b604051639300229b60e01b81526004810187905286907f00000000000000000000000000000000000000000000000000000000000000006001600160a01b031690639300229b90602401602060405180830381865afa1580156115d1573d6000803e3d6000fd5b505050506040513d601f19601f820116820180604052508101906115f5919061274b565b6116115760405162461bcd60e51b81526004016104e090612790565b611619611e45565b611621611e92565b60008651116116425760405162461bcd60e51b81526004016104e0906127bc565b8461168b5760405162461bcd60e51b81526020600482015260196024820152784461746120686173682063616e6e6f7420626520656d70747960381b60448201526064016104e0565b6000805b600089815260036020526040902054811015611710578780519060200120600360008b815260200190815260200160002082815481106116d1576116d161284f565b906000526020600020016040516116e891906128bd565b6040518091039020036116fe5760019150611710565b80611708816128a4565b91505061168f565b50806117405760008881526003602090815260408220805460018101825590835291200161173e888261297e565b505b6040518060a001604052808781526020018881526020014281526020018615158152602001600067ffffffffffffffff81111561177f5761177f61222d565b6040519080825280602002602001820160405280156117a8578160200160208202803683370190505b5090526000898152600260205260409081902090516117c8908a906127f3565b90815260405160209181900382019020825181559082015160018201906117ef908261297e565b5060408201516002820155606082015160038201805460ff19169115159190911790556080820151805161182d91600484019160209091019061207f565b505060405161183e915088906127f3565b6040518091039020887f4b7451fcf30da0942c3c93dd58dbda98ae35d3f5a04e1797f14432899ec5c7b48860405161187891815260200190565b60405180910390a35061188b6001600055565b50505050505050565b61189c611eeb565b6001600160a01b0381166119015760405162461bcd60e51b815260206004820152602660248201527f4f776e61626c653a206e6577206f776e657220697320746865207a65726f206160448201526564647265737360d01b60648201526084016104e0565b61190a81611f9a565b50565b604051637be768b760e01b81526004810183905282906000906001600160a01b037f00000000000000000000000000000000000000000000000000000000000000001690637be768b790602401600060405180830381865afa158015611977573d6000803e3d6000fd5b505050506040513d6000823e601f3d908101601f1916820160405261199f9190810190612660565b60208101519091506001600160a01b0316331480611a47575060405163cf76e48560e01b8152600481018390523360248201527f00000000000000000000000000000000000000000000000000000000000000006001600160a01b03169063cf76e48590604401602060405180830381865afa158015611a23573d6000803e3d6000fd5b505050506040513d601f19601f82011682018060405250810190611a47919061274b565b611a635760405162461bcd60e51b81526004016104e090612768565b604051639300229b60e01b81526004810185905284907f00000000000000000000000000000000000000000000000000000000000000006001600160a01b031690639300229b90602401602060405180830381865afa158015611aca573d6000803e3d6000fd5b505050506040513d601f19601f82011682018060405250810190611aee919061274b565b611b0a5760405162461bcd60e51b81526004016104e090612790565b611b12611e45565b611b1a611e92565b6000845111611b3b5760405162461bcd60e51b81526004016104e0906127bc565b6000858152600260205260408082209051611b579087906127f3565b9081526040519081900360200190205403611b845760405162461bcd60e51b81526004016104e09061280f565b6000858152600260205260408082209051611ba09087906127f3565b9081526040805191829003602090810183206004018054808302850183019093528284529190830182828015611bff57602002820191906000526020600020905b81546001600160a01b03168152600190910190602001808311611be1575b5050505050905060005b8151811015611c9e57600087815260046020526040812083518290859085908110611c3657611c3661284f565b60200260200101516001600160a01b03166001600160a01b0316815260200190815260200160002087604051611c6c91906127f3565b908152604051908190036020019020805491151560ff1990921691909117905580611c96816128a4565b915050611c09565b506000868152600360205260408120905b8154811015611d8e578680519060200120828281548110611cd257611cd261284f565b90600052602060002001604051611ce991906128bd565b604051809103902003611d7c5781548290611d069060019061287b565b81548110611d1657611d1661284f565b90600052602060002001828281548110611d3257611d3261284f565b906000526020600020019081611d489190612a3e565b5081805480611d5957611d5961288e565b600190038181906000526020600020016000611d7591906120e4565b9055611d8e565b80611d86816128a4565b915050611caf565b50600087815260026020526040908190209051611dac9088906127f3565b9081526040519081900360200190206000808255611dcd60018301826120e4565b60006002830181905560038301805460ff19169055611df090600484019061211e565b505085604051611e0091906127f3565b6040519081900381209088907fb09c744f8bf180679a68b249f4422aa6188b9bbaae82afee9584c548b7093c3d90600090a35050611e3e6001600055565b5050505050565b600154600160a01b900460ff1615610ca15760405162461bcd60e51b815260206004820152601060248201526f14185d5cd8589b194e881c185d5cd95960821b60448201526064016104e0565b600260005403611ee45760405162461bcd60e51b815260206004820152601f60248201527f5265656e7472616e637947756172643a207265656e7472616e742063616c6c0060448201526064016104e0565b6002600055565b6001546001600160a01b03163314610ca15760405162461bcd60e51b815260206004820181905260248201527f4f776e61626c653a2063616c6c6572206973206e6f7420746865206f776e657260448201526064016104e0565b611f4d61202f565b6001805460ff60a01b191690557f5db9ee0a495bf2e6ff9c91a7834c1ba4fdd244a5e8aa4e537bd38aeae4b073aa335b6040516001600160a01b03909116815260200160405180910390a1565b600180546001600160a01b038381166001600160a01b0319831681179093556040519116919082907f8be0079c531659141344cd1fd0a4f28419497f9722a3daafe3b4186f6b6457e090600090a35050565b611ff4611e45565b6001805460ff60a01b1916600160a01b1790557f62e78cea01bee320cd4e420270b5ea74000d11b0c9f74754ebdbfc544b05a258611f7d3390565b600154600160a01b900460ff16610ca15760405162461bcd60e51b815260206004820152601460248201527314185d5cd8589b194e881b9bdd081c185d5cd95960621b60448201526064016104e0565b8280548282559060005260206000209081019282156120d4579160200282015b828111156120d457825182546001600160a01b0319166001600160a01b0390911617825560209092019160019091019061209f565b506120e0929150612138565b5090565b5080546120f090612535565b6000825580601f10612100575050565b601f01602090049060005260206000209081019061190a9190612138565b508054600082559060005260206000209081019061190a91905b5b808211156120e05760008155600101612139565b60006020828403121561215f57600080fd5b5035919050565b60005b83811015612181578181015183820152602001612169565b50506000910152565b600081518084526121a2816020860160208601612166565b601f01601f19169290920160200192915050565b6000602080830181845280855180835260408601915060408160051b870101925083870160005b8281101561220b57603f198886030184526121f985835161218a565b945092850192908501906001016121dd565b5092979650505050505050565b6001600160a01b038116811461190a57600080fd5b634e487b7160e01b600052604160045260246000fd5b60405160e0810167ffffffffffffffff811182821017156122665761226661222d565b60405290565b604051601f8201601f1916810167ffffffffffffffff811182821017156122955761229561222d565b604052919050565b600067ffffffffffffffff8211156122b7576122b761222d565b50601f01601f191660200190565b600082601f8301126122d657600080fd5b81356122e96122e48261229d565b61226c565b8181528460208386010111156122fe57600080fd5b816020850160208301376000918101602001919091529392505050565b60008060006060848603121561233057600080fd5b83359250602084013561234281612218565b9150604084013567ffffffffffffffff81111561235e57600080fd5b61236a868287016122c5565b9150509250925092565b60008060006060848603121561238957600080fd5b83359250602084013567ffffffffffffffff8111156123a757600080fd5b6123b3868287016122c5565b925050604084013590509250925092565b600080604083850312156123d757600080fd5b82359150602083013567ffffffffffffffff8111156123f557600080fd5b612401858286016122c5565b9150509250929050565b600060208083528351818401528084015160a0604085015261243060c085018261218a565b60408601516060868101919091528601511515608080870191909152860151858203601f190160a0870152805180835290840192506000918401905b808310156124955783516001600160a01b0316825292840192600192909201919084019061246c565b509695505050505050565b801515811461190a57600080fd5b600080600080608085870312156124c457600080fd5b84359350602085013567ffffffffffffffff8111156124e257600080fd5b6124ee878288016122c5565b935050604085013591506060850135612506816124a0565b939692955090935050565b60006020828403121561252357600080fd5b813561252e81612218565b9392505050565b600181811c9082168061254957607f821691505b60208210810361256957634e487b7160e01b600052602260045260246000fd5b50919050565b600082601f83011261258057600080fd5b815161258e6122e48261229d565b8181528460208386010111156125a357600080fd5b6125b4826020830160208701612166565b949350505050565b80516125c781612218565b919050565b80516125c7816124a0565b600082601f8301126125e857600080fd5b8151602067ffffffffffffffff8211156126045761260461222d565b8160051b61261382820161226c565b928352848101820192828101908785111561262d57600080fd5b83870192505b8483101561265557825161264681612218565b82529183019190830190612633565b979650505050505050565b60006020828403121561267257600080fd5b815167ffffffffffffffff8082111561268a57600080fd5b9083019060e0828603121561269e57600080fd5b6126a6612243565b8251828111156126b557600080fd5b6126c18782860161256f565b8252506126d0602084016125bc565b60208201526040830151828111156126e757600080fd5b6126f38782860161256f565b604083015250606083015160608201526080830151608082015261271960a084016125cc565b60a082015260c08301518281111561273057600080fd5b61273c878286016125d7565b60c08301525095945050505050565b60006020828403121561275d57600080fd5b815161252e816124a0565b6020808252600e908201526d139bdd08185d5d1a1bdc9a5e995960921b604082015260600190565b60208082526012908201527111125108191bd95cc81b9bdd08195e1a5cdd60721b604082015260600190565b60208082526019908201527f4461746120747970652063616e6e6f7420626520656d70747900000000000000604082015260600190565b60008251612805818460208701612166565b9190910192915050565b60208082526013908201527211185d1848191bd95cc81b9bdd08195e1a5cdd606a1b604082015260600190565b60208152600061252e602083018461218a565b634e487b7160e01b600052603260045260246000fd5b634e487b7160e01b600052601160045260246000fd5b81810381811115610b5957610b59612865565b634e487b7160e01b600052603160045260246000fd5b6000600182016128b6576128b6612865565b5060010190565b60008083546128cb81612535565b600182811680156128e357600181146128f857612927565b60ff1984168752821515830287019450612927565b8760005260208060002060005b8581101561291e5781548a820152908401908201612905565b50505082870194505b50929695505050505050565b601f82111561297957600081815260208120601f850160051c8101602086101561295a5750805b601f850160051c820191505b818110156107cf57828155600101612966565b505050565b815167ffffffffffffffff8111156129985761299861222d565b6129ac816129a68454612535565b84612933565b602080601f8311600181146129e157600084156129c95750858301515b600019600386901b1c1916600185901b1785556107cf565b600085815260208120601f198616915b82811015612a10578886015182559484019460019091019084016129f1565b5085821015612a2e5787850151600019600388901b60f8161c191681555b5050505050600190811b01905550565b818103612a49575050565b612a538254612535565b67ffffffffffffffff811115612a6b57612a6b61222d565b612a79816129a68454612535565b6000601f821160018114612aad5760008315612a955750848201545b600019600385901b1c1916600184901b178455611e3e565b600085815260209020601f19841690600086815260209020845b83811015612ae75782860154825560019586019590910190602001612ac7565b5085831015612a2e5793015460001960f8600387901b161c19169092555050600190811b0190555056fea2646970667358221220389a9caf3dc8403cbdfb342ed50d8b1a3caaa7cd3373ea30ba1414e0b5705c6064736f6c63430008130033",
  "linkReferences": {},
  "deployedLinkReferences": {}
}