{
  "_format": "hh-sol-artifact-1",
  "contractName": "DIDRegistry",
  "sourceName": "contracts/DIDRegistry.sol",
  "abi": [
    {
      "inputs": [],
      "stateMutability": "nonpayable",
      "type": "constructor"
    },
    {
      "anonymous": false,
      "inputs": [
        {
          "indexed": true,
          "internalType": "bytes32",
          "name": "didHash",
          "type": "bytes32"
        },
        {
          "indexed": true,
          "internalType": "address",
          "name": "controller",
          "type": "address"
        }
      ],
      "name": "ControllerAdded",
      "type": "event"
    },
    {
      "anonymous": false,
      "inputs": [
        {
          "indexed": true,
          "internalType": "bytes32",
          "name": "didHash",
          "type": "bytes32"
        },
        {
          "indexed": true,
          "internalType": "address",
          "name": "controller",
          "type": "address"
        }
      ],
      "name": "ControllerRemoved",
      "type": "event"
    },
    {
      "anonymous": false,
      "inputs": [
        {
          "indexed": true,
          "internalType": "bytes32",
          "name": "didHash",
          "type": "bytes32"
        },
        {
          "indexed": true,
          "internalType": "address",
          "name": "owner",
          "type": "address"
        },
        {
          "indexed": false,
          "internalType": "string",
          "name": "did",
          "type": "string"
        }
      ],
      "name": "DIDCreated",
      "type": "event"
    },
    {
      "anonymous": false,
      "inputs": [
        {
          "indexed": true,
          "internalType": "bytes32",
          "name": "didHash",
          "type": "bytes32"
        }
      ],
      "name": "DIDRevoked",
      "type": "event"
    },
    {
      "anonymous": false,
      "inputs": [
        {
          "indexed": true,
          "internalType": "bytes32",
          "name": "didHash",
          "type": "bytes32"
        },
        {
          "indexed": true,
          "internalType": "address",
          "name": "newOwner",
          "type": "address"
        }
      ],
      "name": "DIDTransferred",
      "type": "event"
    },
    {
      "anonymous": false,
      "inputs": [
        {
          "indexed": true,
          "internalType": "bytes32",
          "name": "didHash",
          "type": "bytes32"
        },
        {
          "indexed": false,
          "internalType": "string",
          "name": "newDocument",
          "type": "string"
        }
      ],
      "name": "DIDUpdated",
      "type": "event"
    },
    {
      "anonymous": false,
      "inputs": [
        {
          "indexed": true,
          "internalType": "address",
          "name": "previousOwner",
          "type": "address"
        },
        {
          "indexed": true,
          "internalType": "address",
          "name": "newOwner",
          "type": "address"
        }
      ],
      "name": "OwnershipTransferred",
      "type": "event"
    },
    {
      "anonymous": false,
      "inputs": [
        {
          "indexed": false,
          "internalType": "address",
          "name": "account",
          "type": "address"
        }
      ],
      "name": "Paused",
      "type": "event"
    },
    {
      "anonymous": false,
      "inputs": [
        {
          "indexed": false,
          "internalType": "address",
          "name": "account",
          "type": "address"
        }
      ],
      "name": "Unpaused",
      "type": "event"
    },
    {
      "inputs": [],
      "name": "DID_PREFIX",
      "outputs": [
        {
          "internalType": "bytes32",
          "name": "",
          "type": "bytes32"
        }
      ],
      "stateMutability": "view",
      "type": "function"
    },
    {
      "inputs": [
        {
          "internalType": "bytes32",
          "name": "didHash",
          "type": "bytes32"
        },
        {
          "internalType": "address",
          "name": "controller",
          "type": "address"
        }
      ],
      "name": "addController",
      "outputs": [],
      "stateMutability": "nonpayable",
      "type": "function"
    },
    {
      "inputs": [
        {
          "internalType": "string",
          "name": "did",
          "type": "string"
        },
        {
          "internalType": "string",
          "name": "document",
          "type": "string"
        }
      ],
      "name": "createDID",
      "outputs": [
        {
          "internalType": "bytes32",
          "name": "",
          "type": "bytes32"
        }
      ],
      "stateMutability": "nonpayable",
      "type": "function"
    },
    {
      "inputs": [
        {
          "internalType": "bytes32",
          "name": "didHash",
          "type": "bytes32"
        }
      ],
      "name": "getDID",
      "outputs": [
        {
          "components": [
            {
              "internalType": "string",
              "name": "did",
              "type": "string"
            },
            {
              "internalType": "address",
              "name": "owner",
              "type": "address"
            },
            {
              "internalType": "string",
              "name": "document",
              "type": "string"
            },
            {
              "internalType": "uint256",
              "name": "createdAt",
              "type": "uint256"
            },
            {
              "internalType": "uint256",
              "name": "updatedAt",
              "type": "uint256"
            },
            {
              "internalType": "bool",
              "name": "isActive",
              "type": "bool"
            },
            {
              "internalType": "address[]",
              "name": "controllers",
              "type": "address[]"
            }
          ],
          "internalType": "struct IDIDRegistry.DIDDocument",
          "name": "",
          "type": "tuple"
        }
      ],
      "stateMutability": "view",
      "type": "function"
    },
    {
      "inputs": [
        {
          "internalType": "address",
          "name": "owner",
          "type": "address"
        }
      ],
      "name": "getDIDByAddress",
      "outputs": [
        {
          "internalType": "bytes32[]",
          "name": "",
          "type": "bytes32[]"
        }
      ],
      "stateMutability": "view",
      "type": "function"
    },
    {
      "inputs": [
        {
          "internalType": "string",
          "name": "did",
          "type": "string"
        }
      ],
      "name": "getDIDHash",
      "outputs": [
        {
          "internalType": "bytes32",
          "name": "",
          "type": "bytes32"
        }
      ],
      "stateMutability": "view",
      "type": "function"
    },
    {
      "inputs": [],
      "name": "getTotalDIDCount",
      "outputs": [
        {
          "internalType": "uint256",
          "name": "",
          "type": "uint256"
        }
      ],
      "stateMutability": "view",
      "type": "function"
    },
    {
      "inputs": [
        {
          "internalType": "bytes32",
          "name": "didHash",
          "type": "bytes32"
        },
        {
          "internalType": "address",
          "name": "controller",
          "type": "address"
        }
      ],
      "name": "hasControllerAccess",
      "outputs": [
        {
          "internalType": "bool",
          "name": "",
          "type": "bool"
        }
      ],
      "stateMutability": "view",
      "type": "function"
    },
    {
      "inputs": [
        {
          "internalType": "bytes32",
          "name": "didHash",
          "type": "bytes32"
        }
      ],
      "name": "isDIDActive",
      "outputs": [
        {
          "internalType": "bool",
          "name": "",
          "type": "bool"
        }
      ],
      "stateMutability": "view",
      "type": "function"
    },
    {
      "inputs": [],
      "name": "owner",
      "outputs": [
        {
          "internalType": "address",
          "name": "",
          "type": "address"
        }
      ],
      "stateMutability": "view",
      "type": "function"
    },
    {
      "inputs": [],
      "name": "pause",
      "outputs": [],
      "stateMutability": "nonpayable",
      "type": "function"
    },
    {
      "inputs": [],
      "name": "paused",
      "outputs": [
        {
          "internalType": "bool",
          "name": "",
          "type": "bool"
        }
      ],
      "stateMutability": "view",
      "type": "function"
    },
    {
      "inputs": [
        {
          "internalType": "bytes32",
          "name": "didHash",
          "type": "bytes32"
        },
        {
          "internalType": "address",
          "name": "controller",
          "type": "address"
        }
      ],
      "name": "removeController",
      "outputs": [],
      "stateMutability": "nonpayable",
      "type": "function"
    },
    {
      "inputs": [],
      "name": "renounceOwnership",
      "outputs": [],
      "stateMutability": "nonpayable",
      "type": "function"
    },
    {
      "inputs": [
        {
          "internalType": "bytes32",
          "name": "didHash",
          "type": "bytes32"
        }
      ],
      "name": "revokeDID",
      "outputs": [],
      "stateMutability": "nonpayable",
      "type": "function"
    },
    {
      "inputs": [
        {
          "internalType": "bytes32",
          "name": "didHash",
          "type": "bytes32"
        },
        {
          "internalType": "address",
          "name": "newOwner",
          "type": "address"
        }
      ],
      "name": "transferDID",
      "outputs": [],
      "stateMutability": "nonpayable",
      "type": "function"
    },
    {
      "inputs": [
        {
          "internalType": "address",
          "name": "newOwner",
          "type": "address"
        }
      ],
      "name": "transferOwnership",
      "outputs": [],
      "stateMutability": "nonpayable",
      "type": "function"
    },
    {
      "inputs": [],
      "name": "unpause",
      "outputs": [],
      "stateMutability": "nonpayable",
      "type": "function"
    },
    {
      "inputs": [
        {
          "internalType": "bytes32",
          "name": "didHash",
          "type": "bytes32"
        },
        {
          "internalType": "string",
          "name": "newDocument",
          "type": "string"
        }
      ],
      "name": "updateDID",
      "outputs": [],
      "stateMutability": "nonpayable",
      "type": "function"
    }
  ],
  "bytecode": "0x608060405234801561001057600080fd5b50600160005561001f3361003f565b6001805460ff60a01b1916905561003a600280546001019055565b610091565b600180546001600160a01b038381166001600160a01b0319831681179093556040519116919082907f8be0079c531659141344cd1fd0a4f28419497f9722a3daafe3b4186f6b6457e090600090a35050565b611c15806100a06000396000f3fe608060405234801561001057600080fd5b50600436106101215760003560e01c8063854a03dc116100ad578063cf76e48511610071578063cf76e4851461026d578063d8d8428c146102a6578063da83fef4146102b9578063f2fde38b146102cc578063fe1a8487146102df57600080fd5b8063854a03dc146101e65780638da5cb5b146101f95780639300229b1461021457806395f9250d1461023a578063ca97cc7d1461025a57600080fd5b80634c0d9781116100f45780634c0d9781146101715780635c975abb14610198578063715018a6146101b65780637be768b7146101be5780638456cb59146101de57600080fd5b80631539a5071461012657806326c503581461014c5780633e79f926146101545780633f4ba83a14610169575b600080fd5b6101396101343660046116b4565b6102f2565b6040519081526020015b60405180910390f35b6101396105e5565b610167610162366004611718565b610601565b005b61016761075b565b6101397fd71eb8a0d0f681bfe23686aa1bf467067c875d4ffd84ef64486c1fabe1160ec181565b600154600160a01b900460ff165b6040519015158152602001610143565b61016761076d565b6101d16101cc366004611718565b61077f565b60405161014391906117c5565b6101676109e6565b6101676101f4366004611875565b6109f6565b6001546040516001600160a01b039091168152602001610143565b6101a6610222366004611718565b60009081526003602052604090206005015460ff1690565b61024d6102483660046118a1565b610bcd565b60405161014391906118c3565b610139610268366004611907565b610c39565b6101a661027b366004611875565b60009182526006602090815260408084206001600160a01b0393909316845291905290205460ff1690565b6101676102b4366004611875565b610c61565b6101676102c7366004611944565b610efe565b6101676102da3660046118a1565b611075565b6101676102ed366004611875565b6110ee565b60006102fc61135d565b6103046113aa565b826000801b6005826040516103199190611981565b9081526020016040518091039020541461036f5760405162461bcd60e51b815260206004820152601260248201527144494420616c72656164792065786973747360701b60448201526064015b60405180910390fd5b60008451116103b65760405162461bcd60e51b81526020600482015260136024820152724449442063616e6e6f7420626520656d70747960681b6044820152606401610366565b60008351116104025760405162461bcd60e51b8152602060048201526018602482015277446f63756d656e742063616e6e6f7420626520656d70747960401b6044820152606401610366565b60007fd71eb8a0d0f681bfe23686aa1bf467067c875d4ffd84ef64486c1fabe1160ec18560405160200161043792919061199d565b60408051808303601f19018152828252805160209182012060e084018352888452338285015283830188905242606085018190526080850152600160a085015282516000808252928101909352935060c0830191905090526000828152600360205260409020815181906104ab9082611a4b565b5060208201516001820180546001600160a01b0319166001600160a01b03909216919091179055604082015160028201906104e69082611a4b565b50606082015160038201556080820151600482015560a082015160058201805460ff191691151591909117905560c0820151805161052e916006840191602090910190611597565b50503360009081526004602090815260408083208054600181018255908452919092200183905551829150600590610567908890611981565b9081526040805191829003602090810183209390935560008481526006845281812033808352945220805460ff1916600117905582907f2311099ea979dc4a67ef549806ebbd29d88ec5d1e5287a11755b3b66cb7ee098906105ca908990611b0b565b60405180910390a39150506105df6001600055565b92915050565b600060016105f260025490565b6105fc9190611b34565b905090565b60008181526003602052604090206001015481906001600160a01b0316331461063c5760405162461bcd60e51b815260040161036690611b47565b600082815260036020526040902060050154829060ff1661066f5760405162461bcd60e51b815260040161036690611b6e565b61067761135d565b61067f6113aa565b600083815260036020526040812060058101805460ff19169055426004820155905b600682015481101561071f5760006006600087815260200190815260200160002060008460060184815481106106d9576106d9611b9a565b6000918252602080832091909101546001600160a01b031683528201929092526040019020805460ff19169115159190911790558061071781611bb0565b9150506106a1565b5060405184907f7a543322b68a1d7456f634040cba2f200b22e34e209c37313128e0d6d0e9733f90600090a2506107566001600055565b505050565b610763611403565b61076b61145d565b565b610775611403565b61076b60006114b2565b6107ca6040518060e001604052806060815260200160006001600160a01b03168152602001606081526020016000815260200160008152602001600015158152602001606081525090565b60008281526003602052604090206005015460ff166107fb5760405162461bcd60e51b815260040161036690611b6e565b60008281526003602052604090819020815160e08101909252805482908290610823906119c3565b80601f016020809104026020016040519081016040528092919081815260200182805461084f906119c3565b801561089c5780601f106108715761010080835404028352916020019161089c565b820191906000526020600020905b81548152906001019060200180831161087f57829003601f168201915b505050918352505060018201546001600160a01b031660208201526002820180546040909201916108cc906119c3565b80601f01602080910402602001604051908101604052809291908181526020018280546108f8906119c3565b80156109455780601f1061091a57610100808354040283529160200191610945565b820191906000526020600020905b81548152906001019060200180831161092857829003601f168201915b5050505050815260200160038201548152602001600482015481526020016005820160009054906101000a900460ff16151515158152602001600682018054806020026020016040519081016040528092919081815260200182805480156109d657602002820191906000526020600020905b81546001600160a01b031681526001909101906020018083116109b8575b5050505050815250509050919050565b6109ee611403565b61076b611504565b60008281526003602052604090206001015482906001600160a01b03163314610a315760405162461bcd60e51b815260040161036690611b47565b600083815260036020526040902060050154839060ff16610a645760405162461bcd60e51b815260040161036690611b6e565b610a6c61135d565b610a746113aa565b6001600160a01b038316610abf5760405162461bcd60e51b815260206004820152601260248201527124b73b30b634b21031b7b73a3937b63632b960711b6044820152606401610366565b60008481526006602090815260408083206001600160a01b038716845290915290205460ff1615610b325760405162461bcd60e51b815260206004820152601960248201527f436f6e74726f6c6c657220616c726561647920657869737473000000000000006044820152606401610366565b600084815260036020908152604080832060068082018054600180820183559187528587200180546001600160a01b0319166001600160a01b038b169081179091558a8752918552838620828752909452828520805460ff19169094179093559051909287917f37f16608023716800f023e04d83c82c9db12258537f6dbc7dcfd6ab1eddfec299190a350610bc76001600055565b50505050565b6001600160a01b038116600090815260046020908152604091829020805483518184028101840190945280845260609392830182828015610c2d57602002820191906000526020600020905b815481526020019060010190808311610c19575b50505050509050919050565b6000600582604051610c4b9190611981565b9081526020016040518091039020549050919050565b60008281526003602052604090206001015482906001600160a01b03163314610c9c5760405162461bcd60e51b815260040161036690611b47565b600083815260036020526040902060050154839060ff16610ccf5760405162461bcd60e51b815260040161036690611b6e565b610cd761135d565b610cdf6113aa565b6001600160a01b038316610d295760405162461bcd60e51b815260206004820152601160248201527024b73b30b634b2103732bb9037bbb732b960791b6044820152606401610366565b336001600160a01b03841603610d815760405162461bcd60e51b815260206004820152601760248201527f43616e6e6f74207472616e7366657220746f2073656c660000000000000000006044820152606401610366565b60008481526003602090815260408083203384526004909252822090915b8154811015610e535786828281548110610dbb57610dbb611b9a565b906000526020600020015403610e415781548290610ddb90600190611b34565b81548110610deb57610deb611b9a565b9060005260206000200154828281548110610e0857610e08611b9a565b906000526020600020018190555081805480610e2657610e26611bc9565b60019003818190600052602060002001600090559055610e53565b80610e4b81611bb0565b915050610d9f565b50600182810180546001600160a01b0319166001600160a01b0388169081179091554260048086019190915560008981526006602090815260408083203384528252808320805460ff19908116909155858452818420805490911687179055928152828220805495860181558252812090930189905551909188917f943ecd5b177593e54916f7fe80d180a314cafb77a01ae769c002fe352365a0259190a35050610bc76001600055565b60008281526003602052604090206001015482906001600160a01b0316331480610f415750600081815260066020908152604080832033845290915290205460ff165b610f7e5760405162461bcd60e51b815260206004820152600e60248201526d139bdd08185d5d1a1bdc9a5e995960921b6044820152606401610366565b600083815260036020526040902060050154839060ff16610fb15760405162461bcd60e51b815260040161036690611b6e565b610fb961135d565b610fc16113aa565b600083511161100d5760405162461bcd60e51b8152602060048201526018602482015277446f63756d656e742063616e6e6f7420626520656d70747960401b6044820152606401610366565b6000848152600360205260409020600281016110298582611a4b565b5042600482015560405185907ff6d9d269aff3ef8d7ee369cdb4e3c871f01275acf1ed09bc93ee73fd5a5f64a490611062908790611b0b565b60405180910390a250610bc76001600055565b61107d611403565b6001600160a01b0381166110e25760405162461bcd60e51b815260206004820152602660248201527f4f776e61626c653a206e6577206f776e657220697320746865207a65726f206160448201526564647265737360d01b6064820152608401610366565b6110eb816114b2565b50565b60008281526003602052604090206001015482906001600160a01b031633146111295760405162461bcd60e51b815260040161036690611b47565b600083815260036020526040902060050154839060ff1661115c5760405162461bcd60e51b815260040161036690611b6e565b61116461135d565b61116c6113aa565b60008481526006602090815260408083206001600160a01b038716845290915290205460ff166111de5760405162461bcd60e51b815260206004820152601960248201527f436f6e74726f6c6c657220646f6573206e6f74206578697374000000000000006044820152606401610366565b6000848152600360205260408120905b60068201548110156112fd57846001600160a01b031682600601828154811061121957611219611b9a565b6000918252602090912001546001600160a01b0316036112eb5760068201805461124590600190611b34565b8154811061125557611255611b9a565b6000918252602090912001546006830180546001600160a01b03909216918390811061128357611283611b9a565b9060005260206000200160006101000a8154816001600160a01b0302191690836001600160a01b03160217905550816006018054806112c4576112c4611bc9565b600082815260209020810160001990810180546001600160a01b03191690550190556112fd565b806112f581611bb0565b9150506111ee565b5060008581526006602090815260408083206001600160a01b0388168085529252808320805460ff1916905551909187917ff085adec143327053d6bfad3d8d0966e1d16f97bae1cb10aef79936352c4b4de9190a350610bc76001600055565b600154600160a01b900460ff161561076b5760405162461bcd60e51b815260206004820152601060248201526f14185d5cd8589b194e881c185d5cd95960821b6044820152606401610366565b6002600054036113fc5760405162461bcd60e51b815260206004820152601f60248201527f5265656e7472616e637947756172643a207265656e7472616e742063616c6c006044820152606401610366565b6002600055565b6001546001600160a01b0316331461076b5760405162461bcd60e51b815260206004820181905260248201527f4f776e61626c653a2063616c6c6572206973206e6f7420746865206f776e65726044820152606401610366565b611465611547565b6001805460ff60a01b191690557f5db9ee0a495bf2e6ff9c91a7834c1ba4fdd244a5e8aa4e537bd38aeae4b073aa335b6040516001600160a01b03909116815260200160405180910390a1565b600180546001600160a01b038381166001600160a01b0319831681179093556040519116919082907f8be0079c531659141344cd1fd0a4f28419497f9722a3daafe3b4186f6b6457e090600090a35050565b61150c61135d565b6001805460ff60a01b1916600160a01b1790557f62e78cea01bee320cd4e420270b5ea74000d11b0c9f74754ebdbfc544b05a2586114953390565b600154600160a01b900460ff1661076b5760405162461bcd60e51b815260206004820152601460248201527314185d5cd8589b194e881b9bdd081c185d5cd95960621b6044820152606401610366565b8280548282559060005260206000209081019282156115ec579160200282015b828111156115ec57825182546001600160a01b0319166001600160a01b039091161782556020909201916001909101906115b7565b506115f89291506115fc565b5090565b5b808211156115f857600081556001016115fd565b634e487b7160e01b600052604160045260246000fd5b600082601f83011261163857600080fd5b813567ffffffffffffffff8082111561165357611653611611565b604051601f8301601f19908116603f0116810190828211818310171561167b5761167b611611565b8160405283815286602085880101111561169457600080fd5b836020870160208301376000602085830101528094505050505092915050565b600080604083850312156116c757600080fd5b823567ffffffffffffffff808211156116df57600080fd5b6116eb86838701611627565b9350602085013591508082111561170157600080fd5b5061170e85828601611627565b9150509250929050565b60006020828403121561172a57600080fd5b5035919050565b60005b8381101561174c578181015183820152602001611734565b50506000910152565b6000815180845261176d816020860160208601611731565b601f01601f19169290920160200192915050565b600081518084526020808501945080840160005b838110156117ba5781516001600160a01b031687529582019590820190600101611795565b509495945050505050565b602081526000825160e060208401526117e2610100840182611755565b905060018060a01b0360208501511660408401526040840151601f19808584030160608601526118128383611755565b925060608601516080860152608086015160a086015260a0860151151560c086015260c08601519150808584030160e0860152506118508282611781565b95945050505050565b80356001600160a01b038116811461187057600080fd5b919050565b6000806040838503121561188857600080fd5b8235915061189860208401611859565b90509250929050565b6000602082840312156118b357600080fd5b6118bc82611859565b9392505050565b6020808252825182820181905260009190848201906040850190845b818110156118fb578351835292840192918401916001016118df565b50909695505050505050565b60006020828403121561191957600080fd5b813567ffffffffffffffff81111561193057600080fd5b61193c84828501611627565b949350505050565b6000806040838503121561195757600080fd5b82359150602083013567ffffffffffffffff81111561197557600080fd5b61170e85828601611627565b60008251611993818460208701611731565b9190910192915050565b828152600082516119b5816020850160208701611731565b919091016020019392505050565b600181811c908216806119d757607f821691505b6020821081036119f757634e487b7160e01b600052602260045260246000fd5b50919050565b601f82111561075657600081815260208120601f850160051c81016020861015611a245750805b601f850160051c820191505b81811015611a4357828155600101611a30565b505050505050565b815167ffffffffffffffff811115611a6557611a65611611565b611a7981611a7384546119c3565b846119fd565b602080601f831160018114611aae5760008415611a965750858301515b600019600386901b1c1916600185901b178555611a43565b600085815260208120601f198616915b82811015611add57888601518255948401946001909101908401611abe565b5085821015611afb5787850151600019600388901b60f8161c191681555b5050505050600190811b01905550565b6020815260006118bc6020830184611755565b634e487b7160e01b600052601160045260246000fd5b818103818111156105df576105df611b1e565b6020808252600d908201526c2737ba102224a21037bbb732b960991b604082015260600190565b60208082526012908201527111125108191bd95cc81b9bdd08195e1a5cdd60721b604082015260600190565b634e487b7160e01b600052603260045260246000fd5b600060018201611bc257611bc2611b1e565b5060010190565b634e487b7160e01b600052603160045260246000fdfea2646970667358221220de3c6ebf238a7d4bd90a13f6d95e8c2c774833bdaa826b05c023429e4a3e3c4d64736f6c63430008130033",
  "linkReferences": {},
  "deployedLinkReferences": {}
}